:100000000C94340018950000189500001895000015
:10001000189500001895000018950000189500002C
:10002000189500001895000018950000189500001C
:10003000189500001895000018950000189500000C
:100040000C940201189500000C947500189500009E
:1000500018950000189500001895000018950000EC
:1000600018950000189500008FEF8DBFC0EBE8E2F7
:100070004E2E88E08EBFD8E0F8E05F2EA89584B7BA
:10008000082E882784BF88E1992780936000909389
:100090006000EEEFF7E0A0E0B1E088278D933197A4
:1000A000E9F78FE28093C40080E08093C50088E187
:1000B0008093C1006624529A25982D9A399A4198C6
:1000C000389A409885E085BD80E084BD70916E00CF
:1000D000716070936E0085E085BD7091C10070689D
:1000E0007093C10078940C9417040F921F922F9272
:1000F0003F924F925F927F92AF92BF920F931F9366
:100100002F933F934F935F936F937F938F939F931F
:10011000AF93BF93CF93DF93EF93FF938FB78F93FB
:10012000A1E6B3E08091C6008C9384E2482F009151
:100130006103041711F00C94A8007091180270610B
:1001400070931802A0E2B3E088278C930C94E5002A
:100150000D3011F00C94CD00A8E1B2E08C9184FB3D
:1001600016F00C94CB00709118027F7E70931802E9
:1001700080E0A0E2B3E00E94AD048D9388278C93C9
:10018000E0E2F3E0A2E6B3E00E94E005709118021D
:100190007860709318020C94E5000F3118F011F09C
:1001A0000C94D4000C94E500A8E1B2E08C9184FB9F
:1001B00016F00C94E500A1E6B3E08C91A0E2B3E068
:1001C0000E94AD048D9388278C938F918FBFFF91F0
:1001D000EF91DF91CF91BF91AF919F918F917F91DF
:1001E0006F915F914F913F912F911F910F91BF9010
:1001F000AF907F905F904F903F902F901F900F9007
:10020000189508950F921F922F923F924F925F92EE
:100210007F92AF92BF920F931F932F933F934F9371
:100220005F936F937F938F939F93AF93BF93CF937E
:10023000DF93EF93FF938FB78F9378EB76BDA9E1B0
:10024000B2E08C918F5F8C93A9E1B2E00C9148E011
:100250000E94F5058C9300911902003011F00C9466
:100260006201AAE1B2E00C9140E20E94F5058C9394
:10027000EAEEF7E0AFE1B2E08C919927ABE1B2E0B2
:100280000E94170580911A02ABE1B2E00E943C0582
:100290000E9432050C900822689409F4E894A8E1C1
:1002A000B2E08C9185F98C93A8E1B2E08C9185FB4A
:1002B000ABE2B0E08C9182F98C93AAE1B2E08C9130
:1002C0008F5F8C93A0E2B2E08C918F5F8C93A0E261
:1002D000B2E00C9144E60E94F5058C930091200257
:1002E000003011F00C9479017091210271607093CB
:1002F00021028F918FBFFF91EF91DF91CF91BF913D
:10030000AF919F918F917F916F915F914F913F91AD
:100310002F911F910F91BF90AF907F905F904F9062
:100320003F902F901F900F9018955A98E0E9FCE0AD
:100330000E94BC040E94C304A0E1B8E0E8EBFCE02A
:100340000E9401050E94B4040E94C304A0E1B8E029
:10035000ECECFCE00E9401050E94B4040E94C3047E
:10036000A0E1B8E0E4EDFCE00E9401050E94B404C5
:100370000E94C30481E080931F020E94C00108957F
:10038000389AECEDF0E08CE291E00197409A0E94FF
:10039000D60440980E94D604482F492BB1F74098C4
:1003A00084E690E00E94E304389AECEDF0E08CE201
:1003B00091E00197409A0E94D60440980E94D6048A
:1003C000482F492BB1F740980895389AE0E9F1E0B9
:1003D00084EF91E00197409A0E94D60440980E94D1
:1003E000D604482F492BB1F740980895E0EEFCE081
:1003F0000E94BC040E94C304419AE1E0F0E00E9424
:10040000CD0441988CED95E00E94E304E4EEFCE01D
:100410000E94BC040E94C304419AE1E0F0E00E9403
:10042000CD044198E8EEFCE00E94BC040E94C304A5
:100430000895ECEEFCE00E94BC04A2E6B3E00E944A
:10044000B6040E94C30481E0E2E6F3E006E00A930A
:10045000A3EEB1E00E94E505E2E6F3E09CE204E1F0
:100460003CE0A4E2B2E00E942106A3E2B2E02C93B9
:1004700000912302003018F011F00C9441020C940A
:10048000710281E0809300014091230200910001FC
:10049000041718F011F00C947102E0E0F1E0A0E113
:1004A000B8E00E9469050E94B404EEEEFCE00E94F0
:1004B000BC04A0E0B1E00D91112745E150E00E949D
:1004C000F704AFE0B2E0A00FB11F0E94B6040E9493
:1004D000C304A0E0B1E08C918F5F8C9310F40C9476
:1004E0004402A4E2B2E00E940506082F063011F093
:1004F0000C946903E4E2F2E0A1E0B1E00E94E005BF
:10050000E1E0F1E0A1E0B1E00E9426058FEF8093E9
:10051000D101A1E0B1E0E0EFFCE00E940B0611F098
:100520000C94C90280E08093D101A8E0B1E0E8EF2B
:10053000FCE00E940105A3EEB1E0E8EBFCE00E94C4
:100540000105E3EEF1E0A8E0B1E00E94AD040E94F5
:10055000E005A8E0B1E00E94AD04ECE0FDE00E94FF
:100560000105A3EEB1E0E4EDFCE00E940105E3EE3D
:10057000F1E0A8E0B1E00E94AD040E94E005A8E02F
:10058000B1E00E94AD04EAE1FDE00E9401050C9497
:100590006703ECE1FDE00E940B0611F00C940403EC
:1005A00000912302023011F00C94FF02A9E3B2E0A3
:1005B0000E94AE05A0E0B1E00C9300910001013172
:1005C00010F00C94FA0280E08093D101A8E0B1E031
:1005D000E4E2FDE00E940105E0E0F1E0A8E0B1E026
:1005E0000E94AD040E9469058091000180931F0262
:1005F0000C94FD0285E08093D1010C94020384E009
:100600008093D1010C946703ECE3FDE00E940B069C
:1006100011F00C94450300912302023011F00C9468
:100620004003A9E3B2E00E94AE05A0E0B1E00C9364
:1006300000910001023010F00C943B0380E08093A5
:10064000D10100910001013011F00C942A03419A6C
:100650000C942B034198A8E0B1E0E4E4FDE00E9493
:100660000105E0E0F1E0A8E0B1E00E94AD040E94E5
:1006700069050C943E0385E08093D1010C944303FB
:1006800084E08093D1010C946703ECE4FDE00E94C8
:100690000B0611F00C94640380E08093D101A8E074
:1006A000B1E0E4E5FDE00E940105A3E2B0E08C9139
:1006B00085FBA8E0B1E00E94AD040E9442058D9345
:1006C00088278C930C94670381E08093D1010C946C
:1006D0006C0382E08093D1010091D101003018F0C9
:1006E00011F00C9475030C948103E0E1F7E0A1EDA7
:1006F000B1E08C9199270E941E05A8E0B1E00E940C
:100700000105A8E0B1E00E94B6040E94C304089568
:100710004F4B00436F6D616E646F206E6F2072658A
:10072000636F6E6F6369646F004C6F6E6769747599
:100730006420636F6D616E646F206E6F2076616CF4
:10074000696461004E756D65726F20646520757314
:10075000756172696F206E6F2076616C69646F00DD
:100760004E756D65726F20646520706172616D6594
:1007700074726F7320696E76616C69646F00457284
:10078000726F72206C6F6E6769747564207061722D
:10079000616D6574726F2031004572726F72206CEA
:1007A0006F6E676974756420706172616D657472D3
:1007B0006F203200506172616D6574726F206E6FD0
:1007C0002076616C69646F004552524F5238004583
:1007D00052524F522053442E20496E74656E7465F8
:1007E000206465206E7565766F00000000000300D0
:1007F00000003300000033030000333300003333C4
:10080000030033C00C00FF0FFF0F55555555333310
:100810003333777777770C00FCFFCC00FCFFCC0CF0
:10082000FCFFCCCCFCFF0C00FCFFF0FFFFFF0E94A4
:100830009501A8E1B2E08C9183FB16F00C94310491
:1008400070911802777F70931802EAE5FDE00E942C
:10085000BC04A2E6B3E00E94B6040E94C3040E9456
:1008600019020027A3E2B0E08C9185FB00F9442730
:10087000A8E1B2E08C9187FB40F9041711F40C94C5
:10088000790484E190E00E94E3040027A3E2B0E051
:100890008C9185FB00F94427A8E1B2E08C9187FB9D
:1008A00040F9041711F40C947904E0E6FDE00E948D
:1008B000BC04A3E2B0E08C9185FBA0E1B8E00E940B
:1008C00042058D9388278C930E94B4040E94C30430
:1008D000A3E2B0E08C9185FBA8E1B2E08C9187F9AE
:1008E0008C931D9B0C947904709118027064709322
:1008F0001802A8E1B2E08C9186FB16F00C948904F2
:10090000709118027F7B709318020E94E5010E948B
:10091000F6010C94190405D00E94F70400FC0CD0D9
:1009200008950024E89457FF02C009D0689400F8A5
:100930000BD010F80124089502D009D008955095E5
:1009400040954F5F5F4F0895E89417FF0895009515
:1009500010950F5F1F4F689408958F938D91882392
:10096000E9F711978F910895A0E1B8E08D91882360
:1009700011F00CD0FBCF08950E940705802D11F0D7
:1009800005D0FACF08958DE001D08AE00090C00034
:1009900005FEFCCF8093C600089588EE93E013D047
:1009A0003197D9F708953197F1F70895AE2FBF2FFA
:1009B00011974A2F4B2BE1F70895689462F8089538
:1009C000E89462F80895EF93FF93EE27E82BE92B64
:1009D00031F0E3E3F7E03197F1F70197D1F7FF91B9
:1009E000EF910895019111912191308108950F9215
:1009F000B801469F8001479F100D569F100D0F9024
:100A000008950E9407050D920020D9F70895C89512
:100A100031960020089591E005C092E003C094E073
:100A200001C098E0F4DF0D929A95E1F70895880FE0
:100A3000991F880F991FE80FF91FF1CF01960197B1
:100A400021F00E940705E9F7FACF0895819104D0BB
:100A50008D938823D9F70895813618F08B3708F4E1
:100A60008F7D089591E0882321F08894991F8A95BD
:100A7000E9F7892F90950895883018F011968850DD
:100A8000FBCF089580E30EF483950895040F151F9E
:100A9000261F371F0895000F111F221F331F0895AF
:100AA00000951095209530950F5F1F4F2F4F3F4FAA
:100AB0000895019110810FC00E94F2040EC00E949F
:100AC000F20410C00191108117FF05C03FEF2FEF16
:100AD00004C0008111272227332737FF03C0E0DF3E
:100AE0008DE28D93CF92DF92EF92AA24BB24CC2487
:100AF000DD24EE2440E2EAE0FF2755E093E3808125
:100B0000890F87FD9F7083FD907F891B81935A9584
:100B1000A9F7C1DFAA1CBB1CCC1CDD1CEE1C4A952E
:100B200051F7E894EFE0FF2782910BD0EB30E0F72C
:100B30001EF068948A2D09D04D93EF90DF90CF90EE
:100B40000895982F829501D0892F8F70805D26F0AF
:100B5000803309F4089568948D9308950027112730
:100B6000222733271DD08A3328F4803318F005D08C
:100B700015D0F9CF0EF494CF089580538F93402F62
:100B8000512F622F732F87DF86DF80DF84DF8F9105
:100B90009927080F191F291F391F08958D9108954E
:100BA000E894FCDF8032E9F38B32D9F38930C9F362
:100BB0008D3211F46894F2CF089588278D930895AB
:100BC00081918D938823E1F708950991919199235B
:100BD00059F08A95D9F73197002331F081918D939F
:100BE0000A958823C9F70895E8CFFF93881BF9E099
:100BF000001FFA9511F4FF910895881F841B18F4C3
:100C0000840F8894F5CF0894F3CF8FEF83959D914F
:100C10009923E1F70895689401C0E894AF93BF93D6
:100C20008D9116F0919103C00E940705902D8917B0
:100C300018F011F48823A1F7BF91AF91089568943B
:100C400001C0E8942227102F231709F4089526F4F1
:100C50000E940705802D01C08191803081F08917A5
:100C600041F070E08D931A9591F7239571E01D93F3
:100C7000EACF01D0E8CF703011F0772708957723BD
:100C800031F42395882713958D931A95E9F70895E4
:100C90002A2A2A2A2A2A2A2A2A2A2A2A204452495D
:100CA00056455220415544494F202A2A2A2A2A2AA9
:100CB0002A2A2A2A2A2A000030312D30392D3230B2
:100CC00032342031333A30303A353800302E302E3D
:100CD0003134000054494D4252452E4241530000E8
:100CE000543100005432000046696E0024003A007E
:100CF0004C4545564657000056657273696F6E2025
:100D000046573A204665636861203C003E2C2041EE
:100D100072636869766F203C00003E005345544C76
:100D200045440000536520636F6E666967757261A4
:100D3000207365746C656420612000005345545233
:100D4000454C000053455452454C3D004C45454DE3
:100D50004F560000534D4F563D00534552313D0014
:060D6000536D6F763D00AB
:00000001FF
